:100000000C9434000C9446000C9446000C9446006A
:100010000C9446000C9423030C9446000C94260286
:100020000C9446000C9446000C9446000C94460038
:100030000C9446000C9446000C9446000C94460028
:100040000C9446000C9446000C94E8010C94460075
:100050000C9446000C9446000C9446000C94460008
:100060000C9446000C94460011241FBECFEFD8E03C
:10007000DEBFCDBF14E0A0E0B1E001C01D92A53409
:10008000B107E1F70E9488030C94FA030C94000076
:10009000519A50981092C50082E28093C400E0EC1F
:1000A000F0E0808182608083E1ECF0E0808180611B
:1000B0008083808180688083808188608083E2EC97
:1000C000F0E08081886080838081866080830895ED
:1000D0009FB7F89410920301809103018A3078F45D
:1000E000E0910301F0E0EE0FFF1FEF5CFB4F118288
:1000F0001082809103018F5F80930301EDCF809187
:100100007A008F7780937A0080E880BF8FE38093B6
:100110007E0080917F00836080937F0080916400E7
:1001200080688093640080916400846080936400A0
:100130008091640080628093640080916400886094
:1001400080936400559A259A9FBF83E18093B30002
:10015000809170008260809370008091B000826016
:100160008093B0008091B10082608093B100809153
:100170006D00846080936D0080916800846080933E
:1001800068000E94480078940895019739F0880F1C
:10019000991F880F991F02970197F1F70895809191
:1001A000C00087FFFCCF8091C60008959091C000E9
:1001B00095FFFCCF8093C6000895CF93DF93EC01A9
:1001C0008991882319F00E94D600FACFDF91CF9150
:1001D0000895CF93DF938FE091E090933001809367
:1001E0002F01C0912F01D09130010E94CF00888350
:1001F0008A3031F02196D0933001C0932F01F1CF96
:100200008FE091E0DF91CF910895AF92BF92CF92AE
:10021000DF92EF92FF920F931F93CF93DF93109291
:100220000001A1E3B3E00D900020E9F7E1E3F3E082
:10023000119742E050E0E12CF12C20E030E000E0AA
:1002400010E0EA17FB07A1F08081833641F0803788
:1002500041F0823741F08B3339F4108205C08A01B6
:1002600003C09A0101C07A0131964F5F5F4FE9CF19
:100270000115110509F4A1C02115310509F49DC02E
:10028000E114F10409F499C0F901EF5CFC4FEF01AE
:1002900009900020E9F72197CE1BDF0B1092000197
:1002A000C901C20FD31F2C173D0700F5F901EF5C00
:1002B000FC4F4081B9016F5F7F4F6B014C32A1F45D
:1002C0001082A090000121E02A0D20930001B12CA2
:1002D0008F5C9C4F0E949F03F501EE0FFF1FEF5CA8
:1002E000FB4F91838083C6019601DDCFC091000151
:1002F00021E02C0F20930001D0E08F5C9C4F0E94E6
:100300009F03FE01EE0FFF1FEF5CFB4F9183808385
:10031000D801AF5CBC4FFD0101900020E9F7319797
:10032000EA1BFB0BE0930701C7018F5C9C4F0E9407
:100330009F0380930601F894E12CF12C30E2D32E38
:100340008091060190E0E816F906F0F4E80180914A
:1003500007019801280F311DC217D30788F48BB10C
:100360008D258BB9FE01EF5CFC4FE081EE0FFF0B9A
:10037000EF52FC4F808191810E94C5002196E7CF0A
:100380003FEFE31AF30ADCCF5D98109203018091EE
:1003900003018A3078F4E0910301F0E0EE0FFF1FD3
:1003A000EF5CFB4F11821082809103018F5F80937D
:1003B0000301EDCF109202017894DF91CF911F914C
:1003C0000F91FF90EF90DF90CF90BF90AF90089586
:1003D0001F920F920FB60F9211242F933F934F93BA
:1003E0005F936F937F938F939F93AF93BF93EF939D
:1003F000FF938091C600E091020191E09E0F9093DF
:100400000201F0E0EF5CFC4F8083803471F4E091F6
:10041000020181E08E0F80930201F0E0EF5CFC4F5F
:1004200010820E94050110920201FF91EF91BF918D
:10043000AF919F918F917F916F915F914F913F917C
:100440002F910F900FBE0F901F9018951F920F9233
:100450000FB60F9211242F933F934F935F936F9397
:100460007F938F939F93AF93BF93EF93FF93F894F2
:100470008091090190910A01019690930A0180935D
:10048000090180910B0190910C01A0910D01B09197
:100490000E010196A11DB11D80930B0190930C01DB
:1004A000A0930D01B0930E0180910B0190910C016E
:1004B000A0910D01B0910E01813A9648A140B1057D
:1004C00058F08AE00E94D60010920B0110920C01A5
:1004D00010920D0110920E017894FF91EF91BF914F
:1004E000AF919F918F917F916F915F914F913F91CC
:1004F0002F910F900FBE0F901F901895AF92BF9243
:10050000CF92DF92EF92FF920F931F93CF93DF93DF
:1005100083E60E94D6008AE30E94D600C0E0D0E0C5
:1005200000E010E07AE0C72ED12C8091000190E02D
:10053000081719075CF520E030E0F801EE0FFF1F07
:10054000EF5CFE4FD901AA0FBB1FAF5CBB4F8D9173
:100550009C91A080B180B6010E948B037B01C501F4
:10056000B6010E948B03E61AF70A83E0E816F1044D
:1005700038F400FF66C080E3820F0E94D60061C09D
:100580002F5F3F4F2A303105E9F645C08BE30E94CB
:10059000D60080E70E94D6008AE30E94D60000E0E1
:1005A00010E04AE0D42E0C171D072CF57801EE0C54
:1005B000FF1CF701EF5CFB4F808191814AE061E312
:1005C00073E09C01D29EC001D39E900D11240E9425
:1005D000BD0381E393E00E94DD000F5F1F4F0C1706
:1005E0001D071CF48CE20E94D600F701EF5CFB4F64
:1005F00011821082D8CF80E40E94D60010920001B0
:10060000DF91CF911F910F91FF90EF90DF90CF90EE
:10061000BF90AF9008957E013FEFE31AF30A808107
:100620009181CC0FDD1FCF5CDB4F9983888300FF66
:1006300004C08FE28E0D0E94D6000F5F1F4FE701AE
:1006400074CF7E01FACF1F920F920FB60F92112432
:100650002F933F934F935F936F937F938F939F93CA
:10066000AF93BF93EF93FF93F8948091090190911A
:100670000A01099798F18091090190910A0180344B
:10068000964060F5E091000181E08E0F80930001BB
:10069000F0E08091090190910A01EE0FFF1FEF5CDD
:1006A000FE4F918380838091000180910901909198
:1006B0000A018F3F914090F080910001893160F0F4
:1006C0009091010180910001981302C00E947E0266
:1006D00080910001809301011092000110920A01A3
:1006E0001092090110928500109284007894FF9175
:1006F000EF91BF91AF919F918F917F916F915F919A
:100700004F913F912F910F900FBE0F901F90189512
:100710000E946800FFCFAA1BBB1B51E107C0AA1FA4
:10072000BB1FA617B70710F0A61BB70B881F991F92
:100730005A95A9F780959095BC01CD010895FC01CB
:1007400088279927E89421912032E9F3293010F085
:100750002E30C8F32B3241F02D3239F4689404C0A6
:100760000E94C803820F911D219120532A30C0F3AB
:100770001EF4909581959F4F0895BB274A3031F420
:10078000992322F4BDE2909581959F4F0C94D1035B
:100790007AE0979F902D879F802D910D11240895C9
:1007A000BB27FB015527AA27880F991FAA1FA4174B
:1007B00010F0A41B83955051B9F7A05DAA3308F03F
:1007C000A95DA193009779F7B111B1931192CB0173
:1007D0000C94EA03DC01FC01672F71917723E1F7A8
:1007E000329704C07C916D9370836291AE17BF07FE
:0807F000C8F30895F894FFCF4F
:00000001FF
