:100000000C9434000C9446000C9446000C9446006A
:100010000C9446000C941D020C9446000C940401B0
:100020000C9446000C9446000C9446000C94460038
:100030000C9446000C9446000C9446000C94460028
:100040000C9446000C9446000C948C030C944600CF
:100050000C9446000C9446000C9446000C94460008
:100060000C9446000C94460011241FBECFEFD8E03C
:10007000DEBFCDBF14E0A0E0B1E001C01D92A53409
:10008000B107E1F70E9452010C9435040C94000072
:10009000519A50981092C50082E28093C400E0EC1F
:1000A000F0E0808182608083E1ECF0E0808180611B
:1000B0008083808180688083E2ECF0E080818860CA
:1000C000808380818660808308959FB7F894109222
:1000D0000B010EC0E0910B01F0E0EE0FFF1FEF5C93
:1000E000FB4F1182108280910B018F5F80930B0177
:1000F00080910B018A3070F380917A008F77809322
:100100007A0080E880BF8FE380937E0080917F003B
:10011000836080937F008091640080688093640096
:1001200080916400846080936400809164008062A8
:100130008093640080916400886080936400559A85
:10014000259A9FBF83E18093B30080917000826005
:10015000809370008091B00082608093B0008091A5
:10016000B10082608093B10080916D0084608093C3
:100170006D00809168008460809368000E94480050
:1001800078940895019739F0880F991F880F991F67
:1001900002970197F1F708958091C00087FFFCCF87
:1001A0008091C6000895982F8091C00085FFFCCFF4
:1001B0009093C6000895FC0107C08091C00085FFA0
:1001C000FCCF9093C600319690819923B1F70895A2
:1001D000E1E1F1E09E2F2F2F8091C00087FFFCCF3F
:1001E0008091C60081938A30A9F790930F012093E4
:1001F000100181E191E0089502C08091C6008091D4
:10020000C00087FDFACF08951F920F920FB60F928C
:1002100011242F938F939F93AF93BF93F894809162
:1002200004019091050101969093050180930401CA
:100230008091000190910101A0910201B091030110
:100240000196A11DB11D8093000190930101A0931F
:100250000201B09303018091000190910101A091EE
:100260000201B0910301815A9648A140B04078F054
:100270008091C00085FFFCCF8AE08093C600109279
:100280000001109201011092020110920301789472
:10029000BF91AF919F918F912F910F900FBE0F90B3
:1002A0001F9018950E946500FFCFCF92DF92EF92CA
:1002B000FF920F931F93CF93DF938091C00085FF30
:1002C000FCCF83E68093C6008091C00085FFFCCF01
:1002D0008AE38093C600EE24FF24CC24DD243AC0B8
:1002E000C0E0D0E08701000F111F0F5C1E4FFE0120
:1002F000EE0FFF1FEF5CFB4F80819181D801ED91E4
:10030000FC916AE070E00E94CA039B01CF016AE0A1
:1003100070E00E94CA03261B370B2330310550F4CE
:10032000E0FE15C08091C00085FFFCCFFE01E05DBE
:100330008E2F0BC02196CA30D105C9F66EC08091B0
:10034000C00085FFFCCF8C2D815D8093C600089492
:10035000E11CF11C80910E0190E0E816F9060CF406
:10036000BFCF8091C00085FFFCCF8BE38093C60098
:100370008091C00085FFFCCF80E78093C60080910C
:10038000C00085FFFCCF8AE38093C600C0E0D0E0C8
:100390001CE22EC0FE01EE0FFF1FEF5CFB4F8081C1
:1003A00091819C0163E0220F331F6A95E1F7880F6A
:1003B000991F820F931F61E373E04AE050E00E94AF
:1003C000FC0381E393E00E94DB009E012F5F3F4F1F
:1003D0002C153D0534F48091C00085FFFCCF1093AF
:1003E000C600CC0FDD1FCF5CDB4F19821882E901FC
:1003F000CC15DD057CF28091C00085FFFCCF80E448
:100400008093C60010920E01DF91CF911F910F9142
:10041000FF90EF90DF90CF900895D8018D919C913F
:10042000F601EE0FFF1FEF5CFB4F91838083089472
:10043000C11CD11CE0FE8BCF82CF1F920F920FB652
:100440000F9211242F933F934F935F936F937F935A
:100450008F939F93AF93BF93EF93FF93F894809103
:10046000040190910501099798F180910401909100
:1004700005018054964060F580910E01E82FF0E070
:100480002091040130910501EE0FFF1FEF5CFE4F3C
:10049000318320838F5F80930E0180910E018091C4
:1004A0000401909105018F5F914090F080910E01C1
:1004B000893160F090910D0180910E01981711F42F
:1004C0000E94550180910E0180930D0110920E0142
:1004D0001092050110920401109285001092840080
:1004E0007894FF91EF91BF91AF919F918F917F9100
:1004F0006F915F914F913F912F910F900FBE0F9091
:100500001F9018956F927F928F929F92AF92BF9299
:10051000CF92DF92FF920F931F93CF93DF931092AE
:100520000E01E1E3F3E0DF010D900020E9F78824FC
:10053000992440E050E06624772422E030E0A05384
:10054000B34013C08081833611F449010BC080375A
:1005500011F4A90107C0823711F4390103C08B33AC
:1005600009F410822F5F3F4F31962A173B0751F74E
:100570008114910409F4C2C04115510509F4BEC0AB
:100580006114710409F4BAC0FA01EF5CFC4FEF0189
:1005900009900020E9F72197CE1BDF0B10920E0186
:1005A0005F016A019A01C40FD51F21C0F501808146
:1005B0008C32B9F41082F0900E010F2D10E0C901B9
:1005C0008F5C9C4F0E94DE03000F111F0F5C1B4FBE
:1005D000F80191838083F394F0920E0196012F5FCE
:1005E0003F4F0894C11CD11C0894A11CB11CCC160F
:1005F000DD06E0F2F0900E010F2D10E0C9018F5CD6
:100600009C4F0E94DE03000F111F0F5C1B4FF8016F
:1006100091838083F394F0920E01D401AF5CBC4FC0
:10062000FD0101900020E9F73197EA1BFB0BE093F5
:100630000701C3018F5C9C4F0E94DE038093080179
:10064000F89440E050E0B4016F5C7C4F00E234C0AD
:100650008BB180278BB9809131049091320401973E
:1006600039F0880F991F880F991F02970197F1F7AA
:100670008BB180278BB9EC91FF27E7FDF095EE0F4A
:10068000FF1FEF52FC4F0190F081E02D319739F0C0
:10069000EE0FFF1FEE0FFF1F32973197F1F72F5F1D
:1006A0003F4F119680910701F401E80FF11D2E17BD
:1006B0003F0770F24F5F5F4F8091080190E048174D
:1006C000590718F4DB019401EDCF5D9810920B01EE
:1006D0000EC0E0910B01F0E0EE0FFF1FEF5CFB4F4F
:1006E0001182108280910B018F5F80930B018091AA
:1006F0000B018A3070F310920C017894DF91CF9146
:100700001F910F91FF90DF90CF90BF90AF909F907F
:100710008F907F906F9008951F920F920FB60F9257
:1007200011242F933F934F935F936F937F938F93F6
:100730009F93AF93BF93EF93FF939091C6008091E7
:100740000C01E82FF0E0EF5CFC4F90838F5F80930B
:100750000C01903471F480910C01E82FF0E0EF5C13
:10076000FC4F10828F5F80930C010E9482021092D6
:100770000C01FF91EF91BF91AF919F918F917F916C
:100780006F915F914F913F912F910F900FBE0F90FE
:100790001F901895AA1BBB1B51E107C0AA1FBB1FC6
:1007A000A617B70710F0A61BB70B881F991F5A95FD
:1007B000A9F780959095BC01CD010895FC0188278B
:1007C0009927E89421912032E9F3293010F02E3056
:1007D000C8F32B3241F02D3239F4689404C00E94E2
:1007E0001D04820F911D219120532A30C0F31EF465
:1007F000909581959F4F0895FB019F01E8944230A9
:10080000C4F04532B4F44A3029F497FB1EF49095B5
:1008100081959F4F642F77270E94CA03805D8A339A
:100820000CF0895D8193CB010097A1F716F45DE28E
:1008300051931082C9010C9425047AE0979F902D62
:10084000879F802D910D11240895DC01FC01672FF5
:1008500071917723E1F7329704C07C916D93708397
:0E0860006291AE17BF07C8F30895F894FFCF5A
:00000001FF
